{
  "_format": "hh3-artifact-1",
  "contractName": "CoursePlatform",
  "sourceName": "contracts/CoursePlatform.sol",
  "abi": [
    {
      "inputs": [
        {
          "internalType": "address",
          "name": "_ydTokenAddress",
          "type": "address"
        },
        {
          "internalType": "address",
          "name": "initialOwner",
          "type": "address"
        }
      ],
      "stateMutability": "nonpayable",
      "type": "constructor"
    },
    {
      "inputs": [
        {
          "internalType": "address",
          "name": "owner",
          "type": "address"
        }
      ],
      "name": "OwnableInvalidOwner",
      "type": "error"
    },
    {
      "inputs": [
        {
          "internalType": "address",
          "name": "account",
          "type": "address"
        }
      ],
      "name": "OwnableUnauthorizedAccount",
      "type": "error"
    },
    {
      "anonymous": false,
      "inputs": [
        {
          "indexed": true,
          "internalType": "uint256",
          "name": "courseId",
          "type": "uint256"
        },
        {
          "indexed": true,
          "internalType": "address",
          "name": "creator",
          "type": "address"
        },
        {
          "indexed": false,
          "internalType": "uint256",
          "name": "priceInYd",
          "type": "uint256"
        }
      ],
      "name": "CourseCreated",
      "type": "event"
    },
    {
      "anonymous": false,
      "inputs": [
        {
          "indexed": true,
          "internalType": "uint256",
          "name": "courseId",
          "type": "uint256"
        },
        {
          "indexed": true,
          "internalType": "address",
          "name": "student",
          "type": "address"
        },
        {
          "indexed": true,
          "internalType": "address",
          "name": "creator",
          "type": "address"
        }
      ],
      "name": "CoursePurchased",
      "type": "event"
    },
    {
      "anonymous": false,
      "inputs": [
        {
          "indexed": true,
          "internalType": "address",
          "name": "previousOwner",
          "type": "address"
        },
        {
          "indexed": true,
          "internalType": "address",
          "name": "newOwner",
          "type": "address"
        }
      ],
      "name": "OwnershipTransferred",
      "type": "event"
    },
    {
      "inputs": [
        {
          "internalType": "uint256",
          "name": "",
          "type": "uint256"
        },
        {
          "internalType": "address",
          "name": "",
          "type": "address"
        }
      ],
      "name": "courseOwnership",
      "outputs": [
        {
          "internalType": "bool",
          "name": "",
          "type": "bool"
        }
      ],
      "stateMutability": "view",
      "type": "function"
    },
    {
      "inputs": [
        {
          "internalType": "uint256",
          "name": "",
          "type": "uint256"
        }
      ],
      "name": "courses",
      "outputs": [
        {
          "internalType": "address",
          "name": "creator",
          "type": "address"
        },
        {
          "internalType": "uint256",
          "name": "priceInYd",
          "type": "uint256"
        }
      ],
      "stateMutability": "view",
      "type": "function"
    },
    {
      "inputs": [
        {
          "internalType": "uint256",
          "name": "_courseId",
          "type": "uint256"
        },
        {
          "internalType": "uint256",
          "name": "_priceInYd",
          "type": "uint256"
        }
      ],
      "name": "createCourse",
      "outputs": [],
      "stateMutability": "nonpayable",
      "type": "function"
    },
    {
      "inputs": [],
      "name": "owner",
      "outputs": [
        {
          "internalType": "address",
          "name": "",
          "type": "address"
        }
      ],
      "stateMutability": "view",
      "type": "function"
    },
    {
      "inputs": [
        {
          "internalType": "uint256",
          "name": "_courseId",
          "type": "uint256"
        }
      ],
      "name": "purchaseCourse",
      "outputs": [],
      "stateMutability": "nonpayable",
      "type": "function"
    },
    {
      "inputs": [],
      "name": "renounceOwnership",
      "outputs": [],
      "stateMutability": "nonpayable",
      "type": "function"
    },
    {
      "inputs": [
        {
          "internalType": "address",
          "name": "newOwner",
          "type": "address"
        }
      ],
      "name": "transferOwnership",
      "outputs": [],
      "stateMutability": "nonpayable",
      "type": "function"
    },
    {
      "inputs": [],
      "name": "ydToken",
      "outputs": [
        {
          "internalType": "contract IYDToken",
          "name": "",
          "type": "address"
        }
      ],
      "stateMutability": "view",
      "type": "function"
    }
  ],
  "bytecode": "0x60a060405234801561000f575f5ffd5b5060405161130a38038061130a8339818101604052810190610031919061027a565b805f73ffffffffffffffffffffffffffffffffffffffff168173ffffffffffffffffffffffffffffffffffffffff16036100a2575f6040517f1e4fbdf700000000000000000000000000000000000000000000000000000000815260040161009991906102c7565b60405180910390fd5b6100b18161015b60201b60201c565b505f73ffffffffffffffffffffffffffffffffffffffff168273ffffffffffffffffffffffffffffffffffffffff1603610120576040517f08c379a000000000000000000000000000000000000000000000000000000000815260040161011790610360565b60405180910390fd5b8173ffffffffffffffffffffffffffffffffffffffff1660808173ffffffffffffffffffffffffffffffffffffffff1681525050505061037e565b5f5f5f9054906101000a900473ffffffffffffffffffffffffffffffffffffffff169050815f5f6101000a81548173ffffffffffffffffffffffffffffffffffffffff021916908373ffffffffffffffffffffffffffffffffffffffff1602179055508173ffffffffffffffffffffffffffffffffffffffff168173ffffffffffffffffffffffffffffffffffffffff167f8be0079c531659141344cd1fd0a4f28419497f9722a3daafe3b4186f6b6457e060405160405180910390a35050565b5f5ffd5b5f73ffffffffffffffffffffffffffffffffffffffff82169050919050565b5f61024982610220565b9050919050565b6102598161023f565b8114610263575f5ffd5b50565b5f8151905061027481610250565b92915050565b5f5f604083850312156102905761028f61021c565b5b5f61029d85828601610266565b92505060206102ae85828601610266565b9150509250929050565b6102c18161023f565b82525050565b5f6020820190506102da5f8301846102b8565b92915050565b5f82825260208201905092915050565b7f436f75727365506c6174666f726d3a20496e76616c6964205944546f6b656e205f8201527f6164647265737300000000000000000000000000000000000000000000000000602082015250565b5f61034a6027836102e0565b9150610355826102f0565b604082019050919050565b5f6020820190508181035f8301526103778161033e565b9050919050565b608051610f6d61039d5f395f818161022a01526103ba0152610f6d5ff3fe608060405234801561000f575f5ffd5b5060043610610086575f3560e01c8063b9c5c02211610059578063b9c5c02214610113578063cd13193814610131578063f2fde38b1461014d578063f89b6bc81461016957610086565b80632ae57a0a1461008a578063715018a6146100ba5780638da5cb5b146100c457806396f979d2146100e2575b5f5ffd5b6100a4600480360381019061009f91906109e7565b610185565b6040516100b19190610a3f565b60405180910390f35b6100c26101af565b005b6100cc6101c2565b6040516100d99190610a67565b60405180910390f35b6100fc60048036038101906100f79190610a80565b6101e9565b60405161010a929190610aba565b60405180910390f35b61011b610228565b6040516101289190610b3c565b60405180910390f35b61014b60048036038101906101469190610a80565b61024c565b005b61016760048036038101906101629190610b55565b61055d565b005b610183600480360381019061017e9190610b80565b6105e1565b005b6002602052815f5260405f20602052805f5260405f205f915091509054906101000a900460ff1681565b6101b7610807565b6101c05f61088e565b565b5f5f5f9054906101000a900473ffffffffffffffffffffffffffffffffffffffff16905090565b6001602052805f5260405f205f91509050805f015f9054906101000a900473ffffffffffffffffffffffffffffffffffffffff16908060010154905082565b7f000000000000000000000000000000000000000000000000000000000000000081565b5f60015f8381526020019081526020015f2090505f73ffffffffffffffffffffffffffffffffffffffff16815f015f9054906101000a900473ffffffffffffffffffffffffffffffffffffffff1673ffffffffffffffffffffffffffffffffffffffff16036102f0576040517f08c379a00000000000000000000000000000000000000000000000000000000081526004016102e790610c3e565b60405180910390fd5b60025f8381526020019081526020015f205f3373ffffffffffffffffffffffffffffffffffffffff1673ffffffffffffffffffffffffffffffffffffffff1681526020019081526020015f205f9054906101000a900460ff1615610389576040517f08c379a000000000000000000000000000000000000000000000000000000000815260040161038090610ccc565b60405180910390fd5b5f815f015f9054906101000a900473ffffffffffffffffffffffffffffffffffffffff1690505f826001015490505f7f000000000000000000000000000000000000000000000000000000000000000073ffffffffffffffffffffffffffffffffffffffff166323b872dd3385856040518463ffffffff1660e01b815260040161041593929190610cea565b6020604051808303815f875af1158015610431573d5f5f3e3d5ffd5b505050506040513d601f19601f820116820180604052508101906104559190610d49565b905080610497576040517f08c379a000000000000000000000000000000000000000000000000000000000815260040161048e90610de4565b60405180910390fd5b600160025f8781526020019081526020015f205f3373ffffffffffffffffffffffffffffffffffffffff1673ffffffffffffffffffffffffffffffffffffffff1681526020019081526020015f205f6101000a81548160ff0219169083151502179055508273ffffffffffffffffffffffffffffffffffffffff163373ffffffffffffffffffffffffffffffffffffffff16867f0b65c1ae076916899676c24b89dd0360492d45d412fab104cc9c30ead0beab9160405160405180910390a45050505050565b610565610807565b5f73ffffffffffffffffffffffffffffffffffffffff168173ffffffffffffffffffffffffffffffffffffffff16036105d5575f6040517f1e4fbdf70000000000000000000000000000000000000000000000000000000081526004016105cc9190610a67565b60405180910390fd5b6105de8161088e565b50565b5f73ffffffffffffffffffffffffffffffffffffffff1660015f8481526020019081526020015f205f015f9054906101000a900473ffffffffffffffffffffffffffffffffffffffff1673ffffffffffffffffffffffffffffffffffffffff1614610681576040517f08c379a000000000000000000000000000000000000000000000000000000000815260040161067890610e72565b60405180910390fd5b5f81116106c3576040517f08c379a00000000000000000000000000000000000000000000000000000000081526004016106ba90610f00565b60405180910390fd5b60405180604001604052803373ffffffffffffffffffffffffffffffffffffffff1681526020018281525060015f8481526020019081526020015f205f820151815f015f6101000a81548173ffffffffffffffffffffffffffffffffffffffff021916908373ffffffffffffffffffffffffffffffffffffffff16021790555060208201518160010155905050600160025f8481526020019081526020015f205f3373ffffffffffffffffffffffffffffffffffffffff1673ffffffffffffffffffffffffffffffffffffffff1681526020019081526020015f205f6101000a81548160ff0219169083151502179055503373ffffffffffffffffffffffffffffffffffffffff16827fd5752151d5fdb631899f5c4c065a24fd8ab111096f119c44b3539965c4de0cd4836040516107fb9190610f1e565b60405180910390a35050565b61080f61094f565b73ffffffffffffffffffffffffffffffffffffffff1661082d6101c2565b73ffffffffffffffffffffffffffffffffffffffff161461088c5761085061094f565b6040517f118cdaa70000000000000000000000000000000000000000000000000000000081526004016108839190610a67565b60405180910390fd5b565b5f5f5f9054906101000a900473ffffffffffffffffffffffffffffffffffffffff169050815f5f6101000a81548173ffffffffffffffffffffffffffffffffffffffff021916908373ffffffffffffffffffffffffffffffffffffffff1602179055508173ffffffffffffffffffffffffffffffffffffffff168173ffffffffffffffffffffffffffffffffffffffff167f8be0079c531659141344cd1fd0a4f28419497f9722a3daafe3b4186f6b6457e060405160405180910390a35050565b5f33905090565b5f5ffd5b5f819050919050565b61096c8161095a565b8114610976575f5ffd5b50565b5f8135905061098781610963565b92915050565b5f73ffffffffffffffffffffffffffffffffffffffff82169050919050565b5f6109b68261098d565b9050919050565b6109c6816109ac565b81146109d0575f5ffd5b50565b5f813590506109e1816109bd565b92915050565b5f5f604083850312156109fd576109fc610956565b5b5f610a0a85828601610979565b9250506020610a1b858286016109d3565b9150509250929050565b5f8115159050919050565b610a3981610a25565b82525050565b5f602082019050610a525f830184610a30565b92915050565b610a61816109ac565b82525050565b5f602082019050610a7a5f830184610a58565b92915050565b5f60208284031215610a9557610a94610956565b5b5f610aa284828501610979565b91505092915050565b610ab48161095a565b82525050565b5f604082019050610acd5f830185610a58565b610ada6020830184610aab565b9392505050565b5f819050919050565b5f610b04610aff610afa8461098d565b610ae1565b61098d565b9050919050565b5f610b1582610aea565b9050919050565b5f610b2682610b0b565b9050919050565b610b3681610b1c565b82525050565b5f602082019050610b4f5f830184610b2d565b92915050565b5f60208284031215610b6a57610b69610956565b5b5f610b77848285016109d3565b91505092915050565b5f5f60408385031215610b9657610b95610956565b5b5f610ba385828601610979565b9250506020610bb485828601610979565b9150509250929050565b5f82825260208201905092915050565b7f436f75727365506c6174666f726d3a20436f7572736520646f6573206e6f74205f8201527f65786973742e0000000000000000000000000000000000000000000000000000602082015250565b5f610c28602683610bbe565b9150610c3382610bce565b604082019050919050565b5f6020820190508181035f830152610c5581610c1c565b9050919050565b7f436f75727365506c6174666f726d3a20596f7520616c7265616479206f776e205f8201527f7468697320636f757273652e0000000000000000000000000000000000000000602082015250565b5f610cb6602c83610bbe565b9150610cc182610c5c565b604082019050919050565b5f6020820190508181035f830152610ce381610caa565b9050919050565b5f606082019050610cfd5f830186610a58565b610d0a6020830185610a58565b610d176040830184610aab565b949350505050565b610d2881610a25565b8114610d32575f5ffd5b50565b5f81519050610d4381610d1f565b92915050565b5f60208284031215610d5e57610d5d610956565b5b5f610d6b84828501610d35565b91505092915050565b7f436f75727365506c6174666f726d3a20594420746f6b656e207472616e7366655f8201527f72206661696c65642e0000000000000000000000000000000000000000000000602082015250565b5f610dce602983610bbe565b9150610dd982610d74565b604082019050919050565b5f6020820190508181035f830152610dfb81610dc2565b9050919050565b7f436f75727365506c6174666f726d3a20436f7572736520494420616c726561645f8201527f79206578697374732e0000000000000000000000000000000000000000000000602082015250565b5f610e5c602983610bbe565b9150610e6782610e02565b604082019050919050565b5f6020820190508181035f830152610e8981610e50565b9050919050565b7f436f75727365506c6174666f726d3a205072696365206d7573742062652067725f8201527f6561746572207468616e207a65726f2e00000000000000000000000000000000602082015250565b5f610eea603083610bbe565b9150610ef582610e90565b604082019050919050565b5f6020820190508181035f830152610f1781610ede565b9050919050565b5f602082019050610f315f830184610aab565b9291505056fea264697066735822122024f245744135b5faa5b6b315d4a1813d79ae74dda5baaf314cae32ab7f6d71d164736f6c634300081c0033",
  "linkReferences": {},
  "deployedLinkReferences": {},
  "immutableReferences": {
    "955": [
      {
        "length": 32,
        "start": 554
      },
      {
        "length": 32,
        "start": 954
      }
    ]
  },
  "inputSourceName": "project/contracts/CoursePlatform.sol",
  "buildInfoId": "solc-0_8_28-a6b2fc8e29344c6f1498785ad1829670823c3c38"
}