{
  "_format": "hh3-artifact-1",
  "contractName": "YDToken",
  "sourceName": "contracts/YDToken.sol",
  "abi": [
    {
      "inputs": [
        {
          "internalType": "address",
          "name": "initialOwner",
          "type": "address"
        }
      ],
      "stateMutability": "nonpayable",
      "type": "constructor"
    },
    {
      "inputs": [
        {
          "internalType": "address",
          "name": "spender",
          "type": "address"
        },
        {
          "internalType": "uint256",
          "name": "allowance",
          "type": "uint256"
        },
        {
          "internalType": "uint256",
          "name": "needed",
          "type": "uint256"
        }
      ],
      "name": "ERC20InsufficientAllowance",
      "type": "error"
    },
    {
      "inputs": [
        {
          "internalType": "address",
          "name": "sender",
          "type": "address"
        },
        {
          "internalType": "uint256",
          "name": "balance",
          "type": "uint256"
        },
        {
          "internalType": "uint256",
          "name": "needed",
          "type": "uint256"
        }
      ],
      "name": "ERC20InsufficientBalance",
      "type": "error"
    },
    {
      "inputs": [
        {
          "internalType": "address",
          "name": "approver",
          "type": "address"
        }
      ],
      "name": "ERC20InvalidApprover",
      "type": "error"
    },
    {
      "inputs": [
        {
          "internalType": "address",
          "name": "receiver",
          "type": "address"
        }
      ],
      "name": "ERC20InvalidReceiver",
      "type": "error"
    },
    {
      "inputs": [
        {
          "internalType": "address",
          "name": "sender",
          "type": "address"
        }
      ],
      "name": "ERC20InvalidSender",
      "type": "error"
    },
    {
      "inputs": [
        {
          "internalType": "address",
          "name": "spender",
          "type": "address"
        }
      ],
      "name": "ERC20InvalidSpender",
      "type": "error"
    },
    {
      "inputs": [
        {
          "internalType": "address",
          "name": "owner",
          "type": "address"
        }
      ],
      "name": "OwnableInvalidOwner",
      "type": "error"
    },
    {
      "inputs": [
        {
          "internalType": "address",
          "name": "account",
          "type": "address"
        }
      ],
      "name": "OwnableUnauthorizedAccount",
      "type": "error"
    },
    {
      "anonymous": false,
      "inputs": [
        {
          "indexed": true,
          "internalType": "address",
          "name": "owner",
          "type": "address"
        },
        {
          "indexed": true,
          "internalType": "address",
          "name": "spender",
          "type": "address"
        },
        {
          "indexed": false,
          "internalType": "uint256",
          "name": "value",
          "type": "uint256"
        }
      ],
      "name": "Approval",
      "type": "event"
    },
    {
      "anonymous": false,
      "inputs": [
        {
          "indexed": true,
          "internalType": "address",
          "name": "user",
          "type": "address"
        },
        {
          "indexed": false,
          "internalType": "uint256",
          "name": "ethAmount",
          "type": "uint256"
        },
        {
          "indexed": false,
          "internalType": "uint256",
          "name": "ydAmount",
          "type": "uint256"
        }
      ],
      "name": "ExchangedEthForYd",
      "type": "event"
    },
    {
      "anonymous": false,
      "inputs": [
        {
          "indexed": true,
          "internalType": "address",
          "name": "previousOwner",
          "type": "address"
        },
        {
          "indexed": true,
          "internalType": "address",
          "name": "newOwner",
          "type": "address"
        }
      ],
      "name": "OwnershipTransferred",
      "type": "event"
    },
    {
      "anonymous": false,
      "inputs": [
        {
          "indexed": true,
          "internalType": "address",
          "name": "from",
          "type": "address"
        },
        {
          "indexed": true,
          "internalType": "address",
          "name": "to",
          "type": "address"
        },
        {
          "indexed": false,
          "internalType": "uint256",
          "name": "value",
          "type": "uint256"
        }
      ],
      "name": "Transfer",
      "type": "event"
    },
    {
      "inputs": [],
      "name": "EXCHANGE_RATE",
      "outputs": [
        {
          "internalType": "uint256",
          "name": "",
          "type": "uint256"
        }
      ],
      "stateMutability": "view",
      "type": "function"
    },
    {
      "inputs": [
        {
          "internalType": "address",
          "name": "owner",
          "type": "address"
        },
        {
          "internalType": "address",
          "name": "spender",
          "type": "address"
        }
      ],
      "name": "allowance",
      "outputs": [
        {
          "internalType": "uint256",
          "name": "",
          "type": "uint256"
        }
      ],
      "stateMutability": "view",
      "type": "function"
    },
    {
      "inputs": [
        {
          "internalType": "address",
          "name": "spender",
          "type": "address"
        },
        {
          "internalType": "uint256",
          "name": "value",
          "type": "uint256"
        }
      ],
      "name": "approve",
      "outputs": [
        {
          "internalType": "bool",
          "name": "",
          "type": "bool"
        }
      ],
      "stateMutability": "nonpayable",
      "type": "function"
    },
    {
      "inputs": [
        {
          "internalType": "address",
          "name": "account",
          "type": "address"
        }
      ],
      "name": "balanceOf",
      "outputs": [
        {
          "internalType": "uint256",
          "name": "",
          "type": "uint256"
        }
      ],
      "stateMutability": "view",
      "type": "function"
    },
    {
      "inputs": [],
      "name": "decimals",
      "outputs": [
        {
          "internalType": "uint8",
          "name": "",
          "type": "uint8"
        }
      ],
      "stateMutability": "view",
      "type": "function"
    },
    {
      "inputs": [],
      "name": "exchangeEthForYd",
      "outputs": [],
      "stateMutability": "payable",
      "type": "function"
    },
    {
      "inputs": [],
      "name": "name",
      "outputs": [
        {
          "internalType": "string",
          "name": "",
          "type": "string"
        }
      ],
      "stateMutability": "view",
      "type": "function"
    },
    {
      "inputs": [],
      "name": "owner",
      "outputs": [
        {
          "internalType": "address",
          "name": "",
          "type": "address"
        }
      ],
      "stateMutability": "view",
      "type": "function"
    },
    {
      "inputs": [],
      "name": "renounceOwnership",
      "outputs": [],
      "stateMutability": "nonpayable",
      "type": "function"
    },
    {
      "inputs": [],
      "name": "symbol",
      "outputs": [
        {
          "internalType": "string",
          "name": "",
          "type": "string"
        }
      ],
      "stateMutability": "view",
      "type": "function"
    },
    {
      "inputs": [],
      "name": "totalSupply",
      "outputs": [
        {
          "internalType": "uint256",
          "name": "",
          "type": "uint256"
        }
      ],
      "stateMutability": "view",
      "type": "function"
    },
    {
      "inputs": [
        {
          "internalType": "address",
          "name": "to",
          "type": "address"
        },
        {
          "internalType": "uint256",
          "name": "value",
          "type": "uint256"
        }
      ],
      "name": "transfer",
      "outputs": [
        {
          "internalType": "bool",
          "name": "",
          "type": "bool"
        }
      ],
      "stateMutability": "nonpayable",
      "type": "function"
    },
    {
      "inputs": [
        {
          "internalType": "address",
          "name": "from",
          "type": "address"
        },
        {
          "internalType": "address",
          "name": "to",
          "type": "address"
        },
        {
          "internalType": "uint256",
          "name": "value",
          "type": "uint256"
        }
      ],
      "name": "transferFrom",
      "outputs": [
        {
          "internalType": "bool",
          "name": "",
          "type": "bool"
        }
      ],
      "stateMutability": "nonpayable",
      "type": "function"
    },
    {
      "inputs": [
        {
          "internalType": "address",
          "name": "newOwner",
          "type": "address"
        }
      ],
      "name": "transferOwnership",
      "outputs": [],
      "stateMutability": "nonpayable",
      "type": "function"
    },
    {
      "inputs": [],
      "name": "withdrawEth",
      "outputs": [],
      "stateMutability": "nonpayable",
      "type": "function"
    }
  ],
  "bytecode": "0x608060405234801561000f575f5ffd5b5060405161108338038061108383398101604081905261002e916102ae565b806040518060400160405280600c81526020016b2cb4b232b733902a37b5b2b760a11b81525060405180604001604052806002815260200161165160f21b815250816003908161007e9190610373565b50600461008b8282610373565b5050506001600160a01b0381166100bc57604051631e4fbdf760e01b81525f60048201526024015b60405180910390fd5b6100c5816100ff565b506100f96100db6005546001600160a01b031690565b6100e76012600a610526565b6100f490620f4240610531565b610150565b5061055b565b600580546001600160a01b038381166001600160a01b0319831681179093556040519116919082907f8be0079c531659141344cd1fd0a4f28419497f9722a3daafe3b4186f6b6457e0905f90a35050565b6001600160a01b0382166101795760405163ec442f0560e01b81525f60048201526024016100b3565b6101845f8383610188565b5050565b6001600160a01b0383166101b2578060025f8282546101a79190610548565b909155506102229050565b6001600160a01b0383165f90815260208190526040902054818110156102045760405163391434e360e21b81526001600160a01b038516600482015260248101829052604481018390526064016100b3565b6001600160a01b0384165f9081526020819052604090209082900390555b6001600160a01b03821661023e5760028054829003905561025c565b6001600160a01b0382165f9081526020819052604090208054820190555b816001600160a01b0316836001600160a01b03167fddf252ad1be2c89b69c2b068fc378daa952ba7f163c4a11628f55a4df523b3ef836040516102a191815260200190565b60405180910390a3505050565b5f602082840312156102be575f5ffd5b81516001600160a01b03811681146102d4575f5ffd5b9392505050565b634e487b7160e01b5f52604160045260245ffd5b600181811c9082168061030357607f821691505b60208210810361032157634e487b7160e01b5f52602260045260245ffd5b50919050565b601f82111561036e57805f5260205f20601f840160051c8101602085101561034c5750805b601f840160051c820191505b8181101561036b575f8155600101610358565b50505b505050565b81516001600160401b0381111561038c5761038c6102db565b6103a08161039a84546102ef565b84610327565b6020601f8211600181146103d2575f83156103bb5750848201515b5f19600385901b1c1916600184901b17845561036b565b5f84815260208120601f198516915b8281101561040157878501518255602094850194600190920191016103e1565b508482101561041e57868401515f19600387901b60f8161c191681555b50505050600190811b01905550565b634e487b7160e01b5f52601160045260245ffd5b6001815b600184111561047c578085048111156104605761046061042d565b600184161561046e57908102905b60019390931c928002610445565b935093915050565b5f8261049257506001610520565b8161049e57505f610520565b81600181146104b457600281146104be576104da565b6001915050610520565b60ff8411156104cf576104cf61042d565b50506001821b610520565b5060208310610133831016604e8410600b84101617156104fd575081810a610520565b6105095f198484610441565b805f190482111561051c5761051c61042d565b0290505b92915050565b5f6102d48383610484565b80820281158282048414176105205761052061042d565b808201808211156105205761052061042d565b610b1b806105685f395ff3fe6080604052600436106100e4575f3560e01c806370a0823111610087578063a0ef91df11610057578063a0ef91df1461023f578063a9059cbb14610253578063dd62ed3e14610272578063f2fde38b146102b6575f5ffd5b806370a08231146101bc578063715018a6146101f05780638da5cb5b1461020457806395d89b411461022b575f5ffd5b806318160ddd116100c257806318160ddd1461016457806323b872dd14610178578063313ce567146101975780636d93c992146101b2575f5ffd5b806306fdde03146100e8578063095ea7b31461011257806314a8bd0d14610141575b5f5ffd5b3480156100f3575f5ffd5b506100fc6102d5565b604051610109919061096c565b60405180910390f35b34801561011d575f5ffd5b5061013161012c3660046109bc565b610365565b6040519015158152602001610109565b34801561014c575f5ffd5b506101566103e881565b604051908152602001610109565b34801561016f575f5ffd5b50600254610156565b348015610183575f5ffd5b506101316101923660046109e4565b61037e565b3480156101a2575f5ffd5b5060405160128152602001610109565b6101ba6103a1565b005b3480156101c7575f5ffd5b506101566101d6366004610a1e565b6001600160a01b03165f9081526020819052604090205490565b3480156101fb575f5ffd5b506101ba610461565b34801561020f575f5ffd5b506005546040516001600160a01b039091168152602001610109565b348015610236575f5ffd5b506100fc610474565b34801561024a575f5ffd5b506101ba610483565b34801561025e575f5ffd5b5061013161026d3660046109bc565b61058d565b34801561027d575f5ffd5b5061015661028c366004610a3e565b6001600160a01b039182165f90815260016020908152604080832093909416825291909152205490565b3480156102c1575f5ffd5b506101ba6102d0366004610a1e565b61059a565b6060600380546102e490610a6f565b80601f016020809104026020016040519081016040528092919081815260200182805461031090610a6f565b801561035b5780601f106103325761010080835404028352916020019161035b565b820191905f5260205f20905b81548152906001019060200180831161033e57829003601f168201915b5050505050905090565b5f336103728185856105d7565b60019150505b92915050565b5f3361038b8582856105e9565b610396858585610665565b506001949350505050565b5f341161040a5760405162461bcd60e51b815260206004820152602c60248201527f5944546f6b656e3a20596f75206d7573742073656e6420736f6d65204554482060448201526b3a379032bc31b430b733b29760a11b60648201526084015b60405180910390fd5b5f6104176103e834610abb565b905061042333826106c2565b604080513481526020810183905233917fe10bb07c3f12b426c2cf9e7388e6ee5bdb3f364cd93e67fa1bb80ea9ef1e2080910160405180910390a250565b6104696106f6565b6104725f610723565b565b6060600480546102e490610a6f565b61048b6106f6565b47806104d95760405162461bcd60e51b815260206004820152601c60248201527f5944546f6b656e3a204e6f2045544820746f2077697468647261772e000000006044820152606401610401565b5f6104ec6005546001600160a01b031690565b6001600160a01b0316826040515f6040518083038185875af1925050503d805f8114610533576040519150601f19603f3d011682016040523d82523d5f602084013e610538565b606091505b50509050806105895760405162461bcd60e51b815260206004820181905260248201527f5944546f6b656e3a204661696c656420746f207769746864726177204554482e6044820152606401610401565b5050565b5f33610372818585610665565b6105a26106f6565b6001600160a01b0381166105cb57604051631e4fbdf760e01b81525f6004820152602401610401565b6105d481610723565b50565b6105e48383836001610774565b505050565b6001600160a01b038381165f908152600160209081526040808320938616835292905220545f1981101561065f578181101561065157604051637dc7a0d960e11b81526001600160a01b03841660048201526024810182905260448101839052606401610401565b61065f84848484035f610774565b50505050565b6001600160a01b03831661068e57604051634b637e8f60e11b81525f6004820152602401610401565b6001600160a01b0382166106b75760405163ec442f0560e01b81525f6004820152602401610401565b6105e4838383610846565b6001600160a01b0382166106eb5760405163ec442f0560e01b81525f6004820152602401610401565b6105895f8383610846565b6005546001600160a01b031633146104725760405163118cdaa760e01b8152336004820152602401610401565b600580546001600160a01b038381166001600160a01b0319831681179093556040519116919082907f8be0079c531659141344cd1fd0a4f28419497f9722a3daafe3b4186f6b6457e0905f90a35050565b6001600160a01b03841661079d5760405163e602df0560e01b81525f6004820152602401610401565b6001600160a01b0383166107c657604051634a1406b160e11b81525f6004820152602401610401565b6001600160a01b038085165f908152600160209081526040808320938716835292905220829055801561065f57826001600160a01b0316846001600160a01b03167f8c5be1e5ebec7d5bd14f71427d1e84f3dd0314c0f7b2291e5b200ac8c7c3b9258460405161083891815260200190565b60405180910390a350505050565b6001600160a01b038316610870578060025f8282546108659190610ad2565b909155506108e09050565b6001600160a01b0383165f90815260208190526040902054818110156108c25760405163391434e360e21b81526001600160a01b03851660048201526024810182905260448101839052606401610401565b6001600160a01b0384165f9081526020819052604090209082900390555b6001600160a01b0382166108fc5760028054829003905561091a565b6001600160a01b0382165f9081526020819052604090208054820190555b816001600160a01b0316836001600160a01b03167fddf252ad1be2c89b69c2b068fc378daa952ba7f163c4a11628f55a4df523b3ef8360405161095f91815260200190565b60405180910390a3505050565b602081525f82518060208401528060208501604085015e5f604082850101526040601f19601f83011684010191505092915050565b80356001600160a01b03811681146109b7575f5ffd5b919050565b5f5f604083850312156109cd575f5ffd5b6109d6836109a1565b946020939093013593505050565b5f5f5f606084860312156109f6575f5ffd5b6109ff846109a1565b9250610a0d602085016109a1565b929592945050506040919091013590565b5f60208284031215610a2e575f5ffd5b610a37826109a1565b9392505050565b5f5f60408385031215610a4f575f5ffd5b610a58836109a1565b9150610a66602084016109a1565b90509250929050565b600181811c90821680610a8357607f821691505b602082108103610aa157634e487b7160e01b5f52602260045260245ffd5b50919050565b634e487b7160e01b5f52601160045260245ffd5b808202811582820484141761037857610378610aa7565b8082018082111561037857610378610aa756fea2646970667358221220b4fe06ff6dfd4a3261c442197486e6fcc86cbf2331fc489e25b5018757c8817464736f6c634300081c0033",
  "linkReferences": {},
  "deployedLinkReferences": {},
  "immutableReferences": {},
  "inputSourceName": "project/contracts/YDToken.sol",
  "buildInfoId": "solc-0_8_28-2e09a40b1479ddbb4725753dad45120522f51fb3"
}