{
  "_format": "hh3-artifact-1",
  "contractName": "CoursePlatform",
  "sourceName": "contracts/CoursePlatform.sol",
  "abi": [
    {
      "inputs": [
        {
          "internalType": "address",
          "name": "_ydTokenAddress",
          "type": "address"
        },
        {
          "internalType": "address",
          "name": "initialOwner",
          "type": "address"
        },
        {
          "internalType": "address",
          "name": "_platformTreasury",
          "type": "address"
        }
      ],
      "stateMutability": "nonpayable",
      "type": "constructor"
    },
    {
      "inputs": [
        {
          "internalType": "address",
          "name": "owner",
          "type": "address"
        }
      ],
      "name": "OwnableInvalidOwner",
      "type": "error"
    },
    {
      "inputs": [
        {
          "internalType": "address",
          "name": "account",
          "type": "address"
        }
      ],
      "name": "OwnableUnauthorizedAccount",
      "type": "error"
    },
    {
      "anonymous": false,
      "inputs": [
        {
          "indexed": true,
          "internalType": "address",
          "name": "admin",
          "type": "address"
        }
      ],
      "name": "AdminAdded",
      "type": "event"
    },
    {
      "anonymous": false,
      "inputs": [
        {
          "indexed": true,
          "internalType": "address",
          "name": "admin",
          "type": "address"
        }
      ],
      "name": "AdminRemoved",
      "type": "event"
    },
    {
      "anonymous": false,
      "inputs": [
        {
          "indexed": true,
          "internalType": "uint256",
          "name": "courseId",
          "type": "uint256"
        },
        {
          "indexed": true,
          "internalType": "address",
          "name": "creator",
          "type": "address"
        },
        {
          "indexed": false,
          "internalType": "uint256",
          "name": "priceInYd",
          "type": "uint256"
        }
      ],
      "name": "CourseCreated",
      "type": "event"
    },
    {
      "anonymous": false,
      "inputs": [
        {
          "indexed": true,
          "internalType": "uint256",
          "name": "courseId",
          "type": "uint256"
        },
        {
          "indexed": true,
          "internalType": "address",
          "name": "creator",
          "type": "address"
        }
      ],
      "name": "CourseDeleted",
      "type": "event"
    },
    {
      "anonymous": false,
      "inputs": [
        {
          "indexed": true,
          "internalType": "uint256",
          "name": "courseId",
          "type": "uint256"
        },
        {
          "indexed": true,
          "internalType": "address",
          "name": "student",
          "type": "address"
        },
        {
          "indexed": true,
          "internalType": "address",
          "name": "creator",
          "type": "address"
        }
      ],
      "name": "CoursePurchased",
      "type": "event"
    },
    {
      "anonymous": false,
      "inputs": [
        {
          "indexed": true,
          "internalType": "address",
          "name": "instructor",
          "type": "address"
        }
      ],
      "name": "InstructorApproved",
      "type": "event"
    },
    {
      "anonymous": false,
      "inputs": [
        {
          "indexed": true,
          "internalType": "address",
          "name": "instructor",
          "type": "address"
        }
      ],
      "name": "InstructorRevoked",
      "type": "event"
    },
    {
      "anonymous": false,
      "inputs": [
        {
          "indexed": true,
          "internalType": "address",
          "name": "previousOwner",
          "type": "address"
        },
        {
          "indexed": true,
          "internalType": "address",
          "name": "newOwner",
          "type": "address"
        }
      ],
      "name": "OwnershipTransferred",
      "type": "event"
    },
    {
      "anonymous": false,
      "inputs": [
        {
          "indexed": true,
          "internalType": "uint256",
          "name": "courseId",
          "type": "uint256"
        },
        {
          "indexed": true,
          "internalType": "address",
          "name": "from",
          "type": "address"
        },
        {
          "indexed": false,
          "internalType": "uint256",
          "name": "feeAmount",
          "type": "uint256"
        }
      ],
      "name": "PlatformFeeCollected",
      "type": "event"
    },
    {
      "anonymous": false,
      "inputs": [
        {
          "indexed": false,
          "internalType": "uint256",
          "name": "oldRate",
          "type": "uint256"
        },
        {
          "indexed": false,
          "internalType": "uint256",
          "name": "newRate",
          "type": "uint256"
        }
      ],
      "name": "PlatformFeeRateUpdated",
      "type": "event"
    },
    {
      "anonymous": false,
      "inputs": [
        {
          "indexed": true,
          "internalType": "address",
          "name": "oldTreasury",
          "type": "address"
        },
        {
          "indexed": true,
          "internalType": "address",
          "name": "newTreasury",
          "type": "address"
        }
      ],
      "name": "PlatformTreasuryUpdated",
      "type": "event"
    },
    {
      "inputs": [
        {
          "internalType": "address",
          "name": "_admin",
          "type": "address"
        }
      ],
      "name": "addAdmin",
      "outputs": [],
      "stateMutability": "nonpayable",
      "type": "function"
    },
    {
      "inputs": [
        {
          "internalType": "address",
          "name": "",
          "type": "address"
        }
      ],
      "name": "admins",
      "outputs": [
        {
          "internalType": "bool",
          "name": "",
          "type": "bool"
        }
      ],
      "stateMutability": "view",
      "type": "function"
    },
    {
      "inputs": [
        {
          "internalType": "address",
          "name": "_instructor",
          "type": "address"
        }
      ],
      "name": "approveInstructor",
      "outputs": [],
      "stateMutability": "nonpayable",
      "type": "function"
    },
    {
      "inputs": [
        {
          "internalType": "address",
          "name": "",
          "type": "address"
        }
      ],
      "name": "approvedInstructors",
      "outputs": [
        {
          "internalType": "bool",
          "name": "",
          "type": "bool"
        }
      ],
      "stateMutability": "view",
      "type": "function"
    },
    {
      "inputs": [
        {
          "internalType": "uint256",
          "name": "",
          "type": "uint256"
        },
        {
          "internalType": "address",
          "name": "",
          "type": "address"
        }
      ],
      "name": "courseOwnership",
      "outputs": [
        {
          "internalType": "bool",
          "name": "",
          "type": "bool"
        }
      ],
      "stateMutability": "view",
      "type": "function"
    },
    {
      "inputs": [
        {
          "internalType": "uint256",
          "name": "",
          "type": "uint256"
        }
      ],
      "name": "coursePurchaseCount",
      "outputs": [
        {
          "internalType": "uint256",
          "name": "",
          "type": "uint256"
        }
      ],
      "stateMutability": "view",
      "type": "function"
    },
    {
      "inputs": [
        {
          "internalType": "uint256",
          "name": "",
          "type": "uint256"
        }
      ],
      "name": "courses",
      "outputs": [
        {
          "internalType": "address",
          "name": "creator",
          "type": "address"
        },
        {
          "internalType": "uint256",
          "name": "priceInYd",
          "type": "uint256"
        }
      ],
      "stateMutability": "view",
      "type": "function"
    },
    {
      "inputs": [
        {
          "internalType": "uint256",
          "name": "_courseId",
          "type": "uint256"
        },
        {
          "internalType": "uint256",
          "name": "_priceInYd",
          "type": "uint256"
        }
      ],
      "name": "createCourse",
      "outputs": [],
      "stateMutability": "nonpayable",
      "type": "function"
    },
    {
      "inputs": [
        {
          "internalType": "uint256",
          "name": "_courseId",
          "type": "uint256"
        }
      ],
      "name": "deleteCourse",
      "outputs": [],
      "stateMutability": "nonpayable",
      "type": "function"
    },
    {
      "inputs": [],
      "name": "owner",
      "outputs": [
        {
          "internalType": "address",
          "name": "",
          "type": "address"
        }
      ],
      "stateMutability": "view",
      "type": "function"
    },
    {
      "inputs": [],
      "name": "platformFeeRate",
      "outputs": [
        {
          "internalType": "uint256",
          "name": "",
          "type": "uint256"
        }
      ],
      "stateMutability": "view",
      "type": "function"
    },
    {
      "inputs": [],
      "name": "platformTreasury",
      "outputs": [
        {
          "internalType": "address",
          "name": "",
          "type": "address"
        }
      ],
      "stateMutability": "view",
      "type": "function"
    },
    {
      "inputs": [
        {
          "internalType": "uint256",
          "name": "_courseId",
          "type": "uint256"
        }
      ],
      "name": "purchaseCourse",
      "outputs": [],
      "stateMutability": "nonpayable",
      "type": "function"
    },
    {
      "inputs": [
        {
          "internalType": "address",
          "name": "_admin",
          "type": "address"
        }
      ],
      "name": "removeAdmin",
      "outputs": [],
      "stateMutability": "nonpayable",
      "type": "function"
    },
    {
      "inputs": [],
      "name": "renounceOwnership",
      "outputs": [],
      "stateMutability": "nonpayable",
      "type": "function"
    },
    {
      "inputs": [
        {
          "internalType": "address",
          "name": "_instructor",
          "type": "address"
        }
      ],
      "name": "revokeInstructor",
      "outputs": [],
      "stateMutability": "nonpayable",
      "type": "function"
    },
    {
      "inputs": [
        {
          "internalType": "uint256",
          "name": "_newFeeRate",
          "type": "uint256"
        }
      ],
      "name": "setPlatformFeeRate",
      "outputs": [],
      "stateMutability": "nonpayable",
      "type": "function"
    },
    {
      "inputs": [
        {
          "internalType": "address",
          "name": "_newTreasury",
          "type": "address"
        }
      ],
      "name": "setPlatformTreasury",
      "outputs": [],
      "stateMutability": "nonpayable",
      "type": "function"
    },
    {
      "inputs": [
        {
          "internalType": "address",
          "name": "newOwner",
          "type": "address"
        }
      ],
      "name": "transferOwnership",
      "outputs": [],
      "stateMutability": "nonpayable",
      "type": "function"
    },
    {
      "inputs": [],
      "name": "ydToken",
      "outputs": [
        {
          "internalType": "contract IYDToken",
          "name": "",
          "type": "address"
        }
      ],
      "stateMutability": "view",
      "type": "function"
    }
  ],
  "bytecode": "0x60a06040526101f4600355348015610015575f5ffd5b506040516114d53803806114d5833981016040819052610034916101ea565b816001600160a01b03811661006357604051631e4fbdf760e01b81525f60048201526024015b60405180910390fd5b61006c81610180565b506001600160a01b0383166100d35760405162461bcd60e51b815260206004820152602760248201527f436f75727365506c6174666f726d3a20496e76616c6964205944546f6b656e206044820152666164647265737360c81b606482015260840161005a565b6001600160a01b03811661013a5760405162461bcd60e51b815260206004820152602860248201527f436f75727365506c6174666f726d3a20496e76616c6964207472656173757279604482015267206164647265737360c01b606482015260840161005a565b6001600160a01b03928316608052600480546001600160a01b031916918416919091179055165f908152600160208190526040909120805460ff1916909117905561022a565b5f80546001600160a01b038381166001600160a01b0319831681178455604051919092169283917f8be0079c531659141344cd1fd0a4f28419497f9722a3daafe3b4186f6b6457e09190a35050565b80516001600160a01b03811681146101e5575f5ffd5b919050565b5f5f5f606084860312156101fc575f5ffd5b610205846101cf565b9250610213602085016101cf565b9150610221604085016101cf565b90509250925092565b6080516112856102505f395f81816102d401528181610a290152610b3901526112855ff3fe608060405234801561000f575f5ffd5b5060043610610127575f3560e01c8063927fef2e116100a9578063e138818c1161006e578063e138818c14610309578063ee315d891461031c578063eeca08f01461032f578063f2fde38b14610338578063f89b6bc81461034b575f5ffd5b8063927fef2e1461025857806396f979d21461026b5780639dad8d22146102bc578063b9c5c022146102cf578063cd131938146102f6575f5ffd5b8063715018a6116100ef578063715018a6146101d957806378f3bc6f146101e15780637c8e45e9146101f45780637cd86d60146102215780638da5cb5b14610234575f5ffd5b8063083148521461012b5780631785f53c146101625780632ae57a0a14610177578063429b62e5146101a457806370480275146101c6575b5f5ffd5b61014d6101393660046110b7565b60026020525f908152604090205460ff1681565b60405190151581526020015b60405180910390f35b6101756101703660046110b7565b61035e565b005b61014d6101853660046110d7565b600660209081525f928352604080842090915290825290205460ff1681565b61014d6101b23660046110b7565b60016020525f908152604090205460ff1681565b6101756101d43660046110b7565b6103ee565b610175610502565b6101756101ef3660046110b7565b610515565b610213610202366004611101565b60076020525f908152604090205481565b604051908152602001610159565b61017561022f3660046110b7565b610602565b5f546001600160a01b03165b6040516001600160a01b039091168152602001610159565b610175610266366004611101565b6106c2565b61029d610279366004611101565b60056020525f9081526040902080546001909101546001600160a01b039091169082565b604080516001600160a01b039093168352602083019190915201610159565b6101756102ca366004611101565b610775565b6102407f000000000000000000000000000000000000000000000000000000000000000081565b610175610304366004611101565b610909565b600454610240906001600160a01b031681565b61017561032a3660046110b7565b610cc9565b61021360035481565b6101756103463660046110b7565b610e00565b610175610359366004611118565b610e3d565b610366611021565b6001600160a01b0381165f9081526001602052604090205460ff166103a65760405162461bcd60e51b815260040161039d90611138565b60405180910390fd5b6001600160a01b0381165f81815260016020526040808220805460ff19169055517fa3b62bc36326052d97ea62d63c3d60308ed4c3ea8ac079dd8499f1e9c4f80c0f9190a250565b6103f6611021565b6001600160a01b03811661044c5760405162461bcd60e51b815260206004820152601f60248201527f436f75727365506c6174666f726d3a20496e76616c6964206164647265737300604482015260640161039d565b6001600160a01b0381165f9081526001602052604090205460ff16156104b45760405162461bcd60e51b815260206004820181905260248201527f436f75727365506c6174666f726d3a20416c726561647920616e2061646d696e604482015260640161039d565b6001600160a01b0381165f818152600160208190526040808320805460ff1916909217909155517f44d6d25963f097ad14f29f06854a01f575648a1ef82f30e562ccd3889717e3399190a250565b61050a611021565b6105135f61104d565b565b335f9081526001602052604090205460ff166105435760405162461bcd60e51b815260040161039d90611138565b6001600160a01b0381165f9081526002602052604090205460ff166105ba5760405162461bcd60e51b815260206004820152602760248201527f436f75727365506c6174666f726d3a204e6f7420617070726f76656420696e736044820152663a393ab1ba37b960c91b606482015260840161039d565b6001600160a01b0381165f81815260026020526040808220805460ff19169055517f8f648bdea2160329bdb74bd7dd8b0fb54b7138d71808c48cc7b8f0d744a1c6cc9190a250565b61060a611021565b6001600160a01b0381166106715760405162461bcd60e51b815260206004820152602860248201527f436f75727365506c6174666f726d3a20496e76616c6964207472656173757279604482015267206164647265737360c01b606482015260840161039d565b600480546001600160a01b038381166001600160a01b0319831681179093556040519116919082907ff3814cc4b6220f5bf02409e4cebe75e5032fdb20cef0db459431fd5cba574b93905f90a35050565b6106ca611021565b6103e88111156107305760405162461bcd60e51b815260206004820152602b60248201527f436f75727365506c6174666f726d3a20466565207261746520746f6f2068696760448201526a6820286d6178203130252960a81b606482015260840161039d565b600380549082905560408051828152602081018490527fa82b850e6100ae23c7e82adbdcf4da8a3740c1540a6241792521a80179a892dc910160405180910390a15050565b5f81815260056020526040902080546001600160a01b03166107a95760405162461bcd60e51b815260040161039d9061116f565b80546001600160a01b0316331461081a5760405162461bcd60e51b815260206004820152602f60248201527f436f75727365506c6174666f726d3a204f6e6c7920636f75727365206372656160448201526e3a37b91031b0b7103232b632ba329760891b606482015260840161039d565b5f828152600760205260409020541561089b5760405162461bcd60e51b815260206004820152603d60248201527f436f75727365506c6174666f726d3a2043616e6e6f742064656c65746520636f60448201527f757273652077697468206578697374696e67207075726368617365732e000000606482015260840161039d565b5f82815260066020908152604080832033808552908352818420805460ff19169055858452600590925280832080546001600160a01b031916815560010183905551909184917fcc62babafc7c5199ae2dbd6d76ea2fc7d2092bce889e7b5c678d8b723f7fbffb9190a35050565b5f81815260056020526040902080546001600160a01b031661093d5760405162461bcd60e51b815260040161039d9061116f565b5f82815260066020908152604080832033845290915290205460ff16156109bb5760405162461bcd60e51b815260206004820152602c60248201527f436f75727365506c6174666f726d3a20596f7520616c7265616479206f776e2060448201526b3a3434b99031b7bab939b29760a11b606482015260840161039d565b805460018201546003546001600160a01b03909216915f90612710906109e190846111c9565b6109eb91906111e6565b90505f6109f88284611205565b6040516323b872dd60e01b81523360048201526001600160a01b038681166024830152604482018390529192505f917f000000000000000000000000000000000000000000000000000000000000000016906323b872dd906064016020604051808303815f875af1158015610a6f573d5f5f3e3d5ffd5b505050506040513d601f19601f82011682018060405250810190610a939190611218565b905080610aff5760405162461bcd60e51b815260206004820152603460248201527f436f75727365506c6174666f726d3a20594420746f6b656e207472616e73666560448201527339103a379031b932b0ba37b9103330b4b632b21760611b606482015260840161039d565b8215610c4b57600480546040516323b872dd60e01b815233928101929092526001600160a01b039081166024830152604482018590525f917f0000000000000000000000000000000000000000000000000000000000000000909116906323b872dd906064016020604051808303815f875af1158015610b81573d5f5f3e3d5ffd5b505050506040513d601f19601f82011682018060405250810190610ba59190611218565b905080610c125760405162461bcd60e51b815260206004820152603560248201527f436f75727365506c6174666f726d3a20594420746f6b656e207472616e73666560448201527439103a3790383630ba3337b936903330b4b632b21760591b606482015260840161039d565b604051848152339089907faf9954c8a19dd2c9f1d3795e298c964fcd536a9a16d50b88989c13747ae807359060200160405180910390a3505b5f8781526006602090815260408083203384528252808320805460ff1916600117905589835260079091528120805491610c8483611237565b90915550506040516001600160a01b03861690339089907f0b65c1ae076916899676c24b89dd0360492d45d412fab104cc9c30ead0beab91905f90a450505050505050565b335f9081526001602052604090205460ff16610cf75760405162461bcd60e51b815260040161039d90611138565b6001600160a01b038116610d4d5760405162461bcd60e51b815260206004820152601f60248201527f436f75727365506c6174666f726d3a20496e76616c6964206164647265737300604482015260640161039d565b6001600160a01b0381165f9081526002602052604090205460ff1615610db55760405162461bcd60e51b815260206004820181905260248201527f436f75727365506c6174666f726d3a20416c726561647920617070726f766564604482015260640161039d565b6001600160a01b0381165f81815260026020526040808220805460ff19166001179055517ff19289690c2465cbdcfd1af81c37f6dcd891670b7d83b9bd245924d23f36ede79190a250565b610e08611021565b6001600160a01b038116610e3157604051631e4fbdf760e01b81525f600482015260240161039d565b610e3a8161104d565b50565b335f9081526002602052604090205460ff16610eae5760405162461bcd60e51b815260206004820152602a60248201527f436f75727365506c6174666f726d3a204e6f7420616e20617070726f7665642060448201526934b739ba393ab1ba37b960b11b606482015260840161039d565b5f828152600560205260409020546001600160a01b031615610f245760405162461bcd60e51b815260206004820152602960248201527f436f75727365506c6174666f726d3a20436f7572736520494420616c726561646044820152683c9032bc34b9ba399760b91b606482015260840161039d565b5f8111610f8c5760405162461bcd60e51b815260206004820152603060248201527f436f75727365506c6174666f726d3a205072696365206d75737420626520677260448201526f32b0ba32b9103a3430b7103d32b9379760811b606482015260840161039d565b6040805180820182523380825260208083018581525f87815260058352858120945185546001600160a01b0319166001600160a01b039091161785559051600194850155600682528481208382528252849020805460ff1916909317909255915183815284917fd5752151d5fdb631899f5c4c065a24fd8ab111096f119c44b3539965c4de0cd4910160405180910390a35050565b5f546001600160a01b031633146105135760405163118cdaa760e01b815233600482015260240161039d565b5f80546001600160a01b038381166001600160a01b0319831681178455604051919092169283917f8be0079c531659141344cd1fd0a4f28419497f9722a3daafe3b4186f6b6457e09190a35050565b80356001600160a01b03811681146110b2575f5ffd5b919050565b5f602082840312156110c7575f5ffd5b6110d08261109c565b9392505050565b5f5f604083850312156110e8575f5ffd5b823591506110f86020840161109c565b90509250929050565b5f60208284031215611111575f5ffd5b5035919050565b5f5f60408385031215611129575f5ffd5b50508035926020909101359150565b6020808252601c908201527f436f75727365506c6174666f726d3a204e6f7420616e2061646d696e00000000604082015260600190565b60208082526026908201527f436f75727365506c6174666f726d3a20436f7572736520646f6573206e6f742060408201526532bc34b9ba1760d11b606082015260800190565b634e487b7160e01b5f52601160045260245ffd5b80820281158282048414176111e0576111e06111b5565b92915050565b5f8261120057634e487b7160e01b5f52601260045260245ffd5b500490565b818103818111156111e0576111e06111b5565b5f60208284031215611228575f5ffd5b815180151581146110d0575f5ffd5b5f60018201611248576112486111b5565b506001019056fea2646970667358221220dfd56f7c76f0edacf89918459c70f4312d0224e41bd7c407817c127ebc4a47ad64736f6c634300081c0033",
  "linkReferences": {},
  "deployedLinkReferences": {},
  "immutableReferences": {
    "199": [
      {
        "length": 32,
        "start": 724
      },
      {
        "length": 32,
        "start": 2601
      },
      {
        "length": 32,
        "start": 2873
      }
    ]
  },
  "inputSourceName": "project/contracts/CoursePlatform.sol",
  "buildInfoId": "solc-0_8_28-302ece87b49694b5bc319d467f61ccdc8c74cd37"
}